{
  "_format": "hh-sol-artifact-1",
  "contractName": "AsiaPalNFT",
  "sourceName": "contracts/AsiaPalNFT.sol",
  "abi": [
    {
      "inputs": [],
      "stateMutability": "nonpayable",
      "type": "constructor"
    },
    {
      "anonymous": false,
      "inputs": [
        {
          "indexed": true,
          "internalType": "address",
          "name": "owner",
          "type": "address"
        },
        {
          "indexed": true,
          "internalType": "address",
          "name": "approved",
          "type": "address"
        },
        {
          "indexed": true,
          "internalType": "uint256",
          "name": "tokenId",
          "type": "uint256"
        }
      ],
      "name": "Approval",
      "type": "event"
    },
    {
      "anonymous": false,
      "inputs": [
        {
          "indexed": true,
          "internalType": "address",
          "name": "owner",
          "type": "address"
        },
        {
          "indexed": true,
          "internalType": "address",
          "name": "operator",
          "type": "address"
        },
        {
          "indexed": false,
          "internalType": "bool",
          "name": "approved",
          "type": "bool"
        }
      ],
      "name": "ApprovalForAll",
      "type": "event"
    },
    {
      "anonymous": false,
      "inputs": [
        {
          "indexed": true,
          "internalType": "address",
          "name": "previousOwner",
          "type": "address"
        },
        {
          "indexed": true,
          "internalType": "address",
          "name": "newOwner",
          "type": "address"
        }
      ],
      "name": "OwnershipTransferred",
      "type": "event"
    },
    {
      "anonymous": false,
      "inputs": [
        {
          "indexed": true,
          "internalType": "address",
          "name": "from",
          "type": "address"
        },
        {
          "indexed": true,
          "internalType": "address",
          "name": "to",
          "type": "address"
        },
        {
          "indexed": true,
          "internalType": "uint256",
          "name": "tokenId",
          "type": "uint256"
        }
      ],
      "name": "Transfer",
      "type": "event"
    },
    {
      "inputs": [
        {
          "internalType": "address",
          "name": "to",
          "type": "address"
        },
        {
          "internalType": "uint256",
          "name": "tokenId",
          "type": "uint256"
        }
      ],
      "name": "approve",
      "outputs": [],
      "stateMutability": "nonpayable",
      "type": "function"
    },
    {
      "inputs": [
        {
          "internalType": "address",
          "name": "owner",
          "type": "address"
        }
      ],
      "name": "balanceOf",
      "outputs": [
        {
          "internalType": "uint256",
          "name": "",
          "type": "uint256"
        }
      ],
      "stateMutability": "view",
      "type": "function"
    },
    {
      "inputs": [
        {
          "internalType": "uint256",
          "name": "tokenId",
          "type": "uint256"
        }
      ],
      "name": "getApproved",
      "outputs": [
        {
          "internalType": "address",
          "name": "",
          "type": "address"
        }
      ],
      "stateMutability": "view",
      "type": "function"
    },
    {
      "inputs": [
        {
          "internalType": "address",
          "name": "owner",
          "type": "address"
        },
        {
          "internalType": "address",
          "name": "operator",
          "type": "address"
        }
      ],
      "name": "isApprovedForAll",
      "outputs": [
        {
          "internalType": "bool",
          "name": "",
          "type": "bool"
        }
      ],
      "stateMutability": "view",
      "type": "function"
    },
    {
      "inputs": [],
      "name": "name",
      "outputs": [
        {
          "internalType": "string",
          "name": "",
          "type": "string"
        }
      ],
      "stateMutability": "view",
      "type": "function"
    },
    {
      "inputs": [],
      "name": "owner",
      "outputs": [
        {
          "internalType": "address",
          "name": "",
          "type": "address"
        }
      ],
      "stateMutability": "view",
      "type": "function"
    },
    {
      "inputs": [
        {
          "internalType": "uint256",
          "name": "tokenId",
          "type": "uint256"
        }
      ],
      "name": "ownerOf",
      "outputs": [
        {
          "internalType": "address",
          "name": "",
          "type": "address"
        }
      ],
      "stateMutability": "view",
      "type": "function"
    },
    {
      "inputs": [],
      "name": "renounceOwnership",
      "outputs": [],
      "stateMutability": "nonpayable",
      "type": "function"
    },
    {
      "inputs": [
        {
          "internalType": "address",
          "name": "to",
          "type": "address"
        }
      ],
      "name": "safeMint",
      "outputs": [],
      "stateMutability": "nonpayable",
      "type": "function"
    },
    {
      "inputs": [
        {
          "internalType": "address",
          "name": "from",
          "type": "address"
        },
        {
          "internalType": "address",
          "name": "to",
          "type": "address"
        },
        {
          "internalType": "uint256",
          "name": "tokenId",
          "type": "uint256"
        }
      ],
      "name": "safeTransferFrom",
      "outputs": [],
      "stateMutability": "nonpayable",
      "type": "function"
    },
    {
      "inputs": [
        {
          "internalType": "address",
          "name": "from",
          "type": "address"
        },
        {
          "internalType": "address",
          "name": "to",
          "type": "address"
        },
        {
          "internalType": "uint256",
          "name": "tokenId",
          "type": "uint256"
        },
        {
          "internalType": "bytes",
          "name": "_data",
          "type": "bytes"
        }
      ],
      "name": "safeTransferFrom",
      "outputs": [],
      "stateMutability": "nonpayable",
      "type": "function"
    },
    {
      "inputs": [
        {
          "internalType": "address",
          "name": "operator",
          "type": "address"
        },
        {
          "internalType": "bool",
          "name": "approved",
          "type": "bool"
        }
      ],
      "name": "setApprovalForAll",
      "outputs": [],
      "stateMutability": "nonpayable",
      "type": "function"
    },
    {
      "inputs": [
        {
          "internalType": "string",
          "name": "newURI",
          "type": "string"
        }
      ],
      "name": "setBaseURI",
      "outputs": [],
      "stateMutability": "nonpayable",
      "type": "function"
    },
    {
      "inputs": [
        {
          "internalType": "bytes4",
          "name": "interfaceId",
          "type": "bytes4"
        }
      ],
      "name": "supportsInterface",
      "outputs": [
        {
          "internalType": "bool",
          "name": "",
          "type": "bool"
        }
      ],
      "stateMutability": "view",
      "type": "function"
    },
    {
      "inputs": [],
      "name": "symbol",
      "outputs": [
        {
          "internalType": "string",
          "name": "",
          "type": "string"
        }
      ],
      "stateMutability": "view",
      "type": "function"
    },
    {
      "inputs": [
        {
          "internalType": "uint256",
          "name": "tokenId",
          "type": "uint256"
        }
      ],
      "name": "tokenURI",
      "outputs": [
        {
          "internalType": "string",
          "name": "",
          "type": "string"
        }
      ],
      "stateMutability": "view",
      "type": "function"
    },
    {
      "inputs": [
        {
          "internalType": "address",
          "name": "from",
          "type": "address"
        },
        {
          "internalType": "address",
          "name": "to",
          "type": "address"
        },
        {
          "internalType": "uint256",
          "name": "tokenId",
          "type": "uint256"
        }
      ],
      "name": "transferFrom",
      "outputs": [],
      "stateMutability": "nonpayable",
      "type": "function"
    },
    {
      "inputs": [
        {
          "internalType": "address",
          "name": "newOwner",
          "type": "address"
        }
      ],
      "name": "transferOwnership",
      "outputs": [],
      "stateMutability": "nonpayable",
      "type": "function"
    }
  ],
  "bytecode": "0x60806040523480156200001157600080fd5b506040518060400160405280600c81526020017f4173696150616c546f6b656e00000000000000000000000000000000000000008152506040518060400160405280600381526020017f4150540000000000000000000000000000000000000000000000000000000000815250816000908051906020019062000096929190620001a6565b508060019080519060200190620000af929190620001a6565b505050620000d2620000c6620000d860201b60201c565b620000e060201b60201c565b620002bb565b600033905090565b6000600660009054906101000a900473ffffffffffffffffffffffffffffffffffffffff16905081600660006101000a81548173ffffffffffffffffffffffffffffffffffffffff021916908373ffffffffffffffffffffffffffffffffffffffff1602179055508173ffffffffffffffffffffffffffffffffffffffff168173ffffffffffffffffffffffffffffffffffffffff167f8be0079c531659141344cd1fd0a4f28419497f9722a3daafe3b4186f6b6457e060405160405180910390a35050565b828054620001b49062000285565b90600052602060002090601f016020900481019282620001d8576000855562000224565b82601f10620001f357805160ff191683800117855562000224565b8280016001018555821562000224579182015b828111156200022357825182559160200191906001019062000206565b5b50905062000233919062000237565b5090565b5b808211156200025257600081600090555060010162000238565b5090565b7f4e487b7100000000000000000000000000000000000000000000000000000000600052602260045260246000fd5b600060028204905060018216806200029e57607f821691505b60208210811415620002b557620002b462000256565b5b50919050565b612e7a80620002cb6000396000f3fe608060405234801561001057600080fd5b50600436106101165760003560e01c806370a08231116100a2578063a22cb46511610071578063a22cb465146102cb578063b88d4fde146102e7578063c87b56dd14610303578063e985e9c514610333578063f2fde38b1461036357610116565b806370a0823114610255578063715018a6146102855780638da5cb5b1461028f57806395d89b41146102ad57610116565b806323b872dd116100e957806323b872dd146101b557806340d097c3146101d157806342842e0e146101ed57806355f804b3146102095780636352211e1461022557610116565b806301ffc9a71461011b57806306fdde031461014b578063081812fc14610169578063095ea7b314610199575b600080fd5b61013560048036038101906101309190611c15565b61037f565b6040516101429190611c5d565b60405180910390f35b610153610461565b6040516101609190611d11565b60405180910390f35b610183600480360381019061017e9190611d69565b6104f3565b6040516101909190611dd7565b60405180910390f35b6101b360048036038101906101ae9190611e1e565b610578565b005b6101cf60048036038101906101ca9190611e5e565b610690565b005b6101eb60048036038101906101e69190611eb1565b6106f0565b005b61020760048036038101906102029190611e5e565b61078c565b005b610223600480360381019061021e9190612013565b6107ac565b005b61023f600480360381019061023a9190611d69565b610842565b60405161024c9190611dd7565b60405180910390f35b61026f600480360381019061026a9190611eb1565b6108f4565b60405161027c919061206b565b60405180910390f35b61028d6109ac565b005b610297610a34565b6040516102a49190611dd7565b60405180910390f35b6102b5610a5e565b6040516102c29190611d11565b60405180910390f35b6102e560048036038101906102e091906120b2565b610af0565b005b61030160048036038101906102fc9190612193565b610c71565b005b61031d60048036038101906103189190611d69565b610cd3565b60405161032a9190611d11565b60405180910390f35b61034d60048036038101906103489190612216565b610d7a565b60405161035a9190611c5d565b60405180910390f35b61037d60048036038101906103789190611eb1565b610e0e565b005b60007f80ac58cd000000000000000000000000000000000000000000000000000000007bffffffffffffffffffffffffffffffffffffffffffffffffffffffff1916827bffffffffffffffffffffffffffffffffffffffffffffffffffffffff1916148061044a57507f5b5e139f000000000000000000000000000000000000000000000000000000007bffffffffffffffffffffffffffffffffffffffffffffffffffffffff1916827bffffffffffffffffffffffffffffffffffffffffffffffffffffffff1916145b8061045a575061045982610f06565b5b9050919050565b60606000805461047090612285565b80601f016020809104026020016040519081016040528092919081815260200182805461049c90612285565b80156104e95780601f106104be576101008083540402835291602001916104e9565b820191906000526020600020905b8154815290600101906020018083116104cc57829003601f168201915b5050505050905090565b60006104fe82610f70565b61053d576040517f08c379a000000000000000000000000000000000000000000000000000000000815260040161053490612329565b60405180910390fd5b6004600083815260200190815260200160002060009054906101000a900473ffffffffffffffffffffffffffffffffffffffff169050919050565b600061058382610842565b90508073ffffffffffffffffffffffffffffffffffffffff168373ffffffffffffffffffffffffffffffffffffffff1614156105f4576040517f08c379a00000000000000000000000000000000000000000000000000000000081526004016105eb906123bb565b60405180910390fd5b8073ffffffffffffffffffffffffffffffffffffffff16610613610fdc565b73ffffffffffffffffffffffffffffffffffffffff16148061064257506106418161063c610fdc565b610d7a565b5b610681576040517f08c379a00000000000000000000000000000000000000000000000000000000081526004016106789061244d565b60405180910390fd5b61068b8383610fe4565b505050565b6106a161069b610fdc565b8261109d565b6106e0576040517f08c379a00000000000000000000000000000000000000000000000000000000081526004016106d7906124df565b60405180910390fd5b6106eb83838361117b565b505050565b6106f8610fdc565b73ffffffffffffffffffffffffffffffffffffffff16610716610a34565b73ffffffffffffffffffffffffffffffffffffffff161461076c576040517f08c379a00000000000000000000000000000000000000000000000000000000081526004016107639061254b565b60405180910390fd5b61077f8161077a60086113d7565b6113e5565b6107896008611403565b50565b6107a783838360405180602001604052806000815250610c71565b505050565b6107b4610fdc565b73ffffffffffffffffffffffffffffffffffffffff166107d2610a34565b73ffffffffffffffffffffffffffffffffffffffff1614610828576040517f08c379a000000000000000000000000000000000000000000000000000000000815260040161081f9061254b565b60405180910390fd5b806007908051906020019061083e929190611b06565b5050565b6000806002600084815260200190815260200160002060009054906101000a900473ffffffffffffffffffffffffffffffffffffffff169050600073ffffffffffffffffffffffffffffffffffffffff168173ffffffffffffffffffffffffffffffffffffffff1614156108eb576040517f08c379a00000000000000000000000000000000000000000000000000000000081526004016108e2906125dd565b60405180910390fd5b80915050919050565b60008073ffffffffffffffffffffffffffffffffffffffff168273ffffffffffffffffffffffffffffffffffffffff161415610965576040517f08c379a000000000000000000000000000000000000000000000000000000000815260040161095c9061266f565b60405180910390fd5b600360008373ffffffffffffffffffffffffffffffffffffffff1673ffffffffffffffffffffffffffffffffffffffff168152602001908152602001600020549050919050565b6109b4610fdc565b73ffffffffffffffffffffffffffffffffffffffff166109d2610a34565b73ffffffffffffffffffffffffffffffffffffffff1614610a28576040517f08c379a0000000000000000000000000000000000000000000000000000000008152600401610a1f9061254b565b60405180910390fd5b610a326000611419565b565b6000600660009054906101000a900473ffffffffffffffffffffffffffffffffffffffff16905090565b606060018054610a6d90612285565b80601f0160208091040260200160405190810160405280929190818152602001828054610a9990612285565b8015610ae65780601f10610abb57610100808354040283529160200191610ae6565b820191906000526020600020905b815481529060010190602001808311610ac957829003601f168201915b5050505050905090565b610af8610fdc565b73ffffffffffffffffffffffffffffffffffffffff168273ffffffffffffffffffffffffffffffffffffffff161415610b66576040517f08c379a0000000000000000000000000000000000000000000000000000000008152600401610b5d906126db565b60405180910390fd5b8060056000610b73610fdc565b73ffffffffffffffffffffffffffffffffffffffff1673ffffffffffffffffffffffffffffffffffffffff16815260200190815260200160002060008473ffffffffffffffffffffffffffffffffffffffff1673ffffffffffffffffffffffffffffffffffffffff16815260200190815260200160002060006101000a81548160ff0219169083151502179055508173ffffffffffffffffffffffffffffffffffffffff16610c20610fdc565b73ffffffffffffffffffffffffffffffffffffffff167f17307eab39ab6107e8899845ad3d59bd9653f200f220920489ca2b5937696c3183604051610c659190611c5d565b60405180910390a35050565b610c82610c7c610fdc565b8361109d565b610cc1576040517f08c379a0000000000000000000000000000000000000000000000000000000008152600401610cb8906124df565b60405180910390fd5b610ccd848484846114df565b50505050565b6060610cde82610f70565b610d1d576040517f08c379a0000000000000000000000000000000000000000000000000000000008152600401610d149061276d565b60405180910390fd5b6000610d2761153b565b90506000815111610d475760405180602001604052806000815250610d72565b80610d51846115cd565b604051602001610d629291906127c9565b6040516020818303038152906040525b915050919050565b6000600560008473ffffffffffffffffffffffffffffffffffffffff1673ffffffffffffffffffffffffffffffffffffffff16815260200190815260200160002060008373ffffffffffffffffffffffffffffffffffffffff1673ffffffffffffffffffffffffffffffffffffffff16815260200190815260200160002060009054906101000a900460ff16905092915050565b610e16610fdc565b73ffffffffffffffffffffffffffffffffffffffff16610e34610a34565b73ffffffffffffffffffffffffffffffffffffffff1614610e8a576040517f08c379a0000000000000000000000000000000000000000000000000000000008152600401610e819061254b565b60405180910390fd5b600073ffffffffffffffffffffffffffffffffffffffff168173ffffffffffffffffffffffffffffffffffffffff161415610efa576040517f08c379a0000000000000000000000000000000000000000000000000000000008152600401610ef19061285f565b60405180910390fd5b610f0381611419565b50565b60007f01ffc9a7000000000000000000000000000000000000000000000000000000007bffffffffffffffffffffffffffffffffffffffffffffffffffffffff1916827bffffffffffffffffffffffffffffffffffffffffffffffffffffffff1916149050919050565b60008073ffffffffffffffffffffffffffffffffffffffff166002600084815260200190815260200160002060009054906101000a900473ffffffffffffffffffffffffffffffffffffffff1673ffffffffffffffffffffffffffffffffffffffff1614159050919050565b600033905090565b816004600083815260200190815260200160002060006101000a81548173ffffffffffffffffffffffffffffffffffffffff021916908373ffffffffffffffffffffffffffffffffffffffff160217905550808273ffffffffffffffffffffffffffffffffffffffff1661105783610842565b73ffffffffffffffffffffffffffffffffffffffff167f8c5be1e5ebec7d5bd14f71427d1e84f3dd0314c0f7b2291e5b200ac8c7c3b92560405160405180910390a45050565b60006110a882610f70565b6110e7576040517f08c379a00000000000000000000000000000000000000000000000000000000081526004016110de906128f1565b60405180910390fd5b60006110f283610842565b90508073ffffffffffffffffffffffffffffffffffffffff168473ffffffffffffffffffffffffffffffffffffffff16148061116157508373ffffffffffffffffffffffffffffffffffffffff16611149846104f3565b73ffffffffffffffffffffffffffffffffffffffff16145b8061117257506111718185610d7a565b5b91505092915050565b8273ffffffffffffffffffffffffffffffffffffffff1661119b82610842565b73ffffffffffffffffffffffffffffffffffffffff16146111f1576040517f08c379a00000000000000000000000000000000000000000000000000000000081526004016111e890612983565b60405180910390fd5b600073ffffffffffffffffffffffffffffffffffffffff168273ffffffffffffffffffffffffffffffffffffffff161415611261576040517f08c379a000000000000000000000000000000000000000000000000000000000815260040161125890612a15565b60405180910390fd5b61126c83838361172e565b611277600082610fe4565b6001600360008573ffffffffffffffffffffffffffffffffffffffff1673ffffffffffffffffffffffffffffffffffffffff16815260200190815260200160002060008282546112c79190612a64565b925050819055506001600360008473ffffffffffffffffffffffffffffffffffffffff1673ffffffffffffffffffffffffffffffffffffffff168152602001908152602001600020600082825461131e9190612a98565b92505081905550816002600083815260200190815260200160002060006101000a81548173ffffffffffffffffffffffffffffffffffffffff021916908373ffffffffffffffffffffffffffffffffffffffff160217905550808273ffffffffffffffffffffffffffffffffffffffff168473ffffffffffffffffffffffffffffffffffffffff167fddf252ad1be2c89b69c2b068fc378daa952ba7f163c4a11628f55a4df523b3ef60405160405180910390a4505050565b600081600001549050919050565b6113ff828260405180602001604052806000815250611733565b5050565b6001816000016000828254019250508190555050565b6000600660009054906101000a900473ffffffffffffffffffffffffffffffffffffffff16905081600660006101000a81548173ffffffffffffffffffffffffffffffffffffffff021916908373ffffffffffffffffffffffffffffffffffffffff1602179055508173ffffffffffffffffffffffffffffffffffffffff168173ffffffffffffffffffffffffffffffffffffffff167f8be0079c531659141344cd1fd0a4f28419497f9722a3daafe3b4186f6b6457e060405160405180910390a35050565b6114ea84848461117b565b6114f68484848461178e565b611535576040517f08c379a000000000000000000000000000000000000000000000000000000000815260040161152c90612b60565b60405180910390fd5b50505050565b60606007805461154a90612285565b80601f016020809104026020016040519081016040528092919081815260200182805461157690612285565b80156115c35780601f10611598576101008083540402835291602001916115c3565b820191906000526020600020905b8154815290600101906020018083116115a657829003601f168201915b5050505050905090565b60606000821415611615576040518060400160405280600181526020017f30000000000000000000000000000000000000000000000000000000000000008152509050611729565b600082905060005b6000821461164757808061163090612b80565b915050600a826116409190612bf8565b915061161d565b60008167ffffffffffffffff81111561166357611662611ee8565b5b6040519080825280601f01601f1916602001820160405280156116955781602001600182028036833780820191505090505b5090505b60008514611722576001826116ae9190612a64565b9150600a856116bd9190612c29565b60306116c99190612a98565b60f81b8183815181106116df576116de612c5a565b5b60200101907effffffffffffffffffffffffffffffffffffffffffffffffffffffffffffff1916908160001a905350600a8561171b9190612bf8565b9450611699565b8093505050505b919050565b505050565b61173d8383611925565b61174a600084848461178e565b611789576040517f08c379a000000000000000000000000000000000000000000000000000000000815260040161178090612b60565b60405180910390fd5b505050565b60006117af8473ffffffffffffffffffffffffffffffffffffffff16611af3565b15611918578373ffffffffffffffffffffffffffffffffffffffff1663150b7a026117d8610fdc565b8786866040518563ffffffff1660e01b81526004016117fa9493929190612cde565b602060405180830381600087803b15801561181457600080fd5b505af192505050801561184557506040513d601f19601f820116820180604052508101906118429190612d3f565b60015b6118c8573d8060008114611875576040519150601f19603f3d011682016040523d82523d6000602084013e61187a565b606091505b506000815114156118c0576040517f08c379a00000000000000000000000000000000000000000000000000000000081526004016118b790612b60565b60405180910390fd5b805181602001fd5b63150b7a0260e01b7bffffffffffffffffffffffffffffffffffffffffffffffffffffffff1916817bffffffffffffffffffffffffffffffffffffffffffffffffffffffff19161491505061191d565b600190505b949350505050565b600073ffffffffffffffffffffffffffffffffffffffff168273ffffffffffffffffffffffffffffffffffffffff161415611995576040517f08c379a000000000000000000000000000000000000000000000000000000000815260040161198c90612db8565b60405180910390fd5b61199e81610f70565b156119de576040517f08c379a00000000000000000000000000000000000000000000000000000000081526004016119d590612e24565b60405180910390fd5b6119ea6000838361172e565b6001600360008473ffffffffffffffffffffffffffffffffffffffff1673ffffffffffffffffffffffffffffffffffffffff1681526020019081526020016000206000828254611a3a9190612a98565b92505081905550816002600083815260200190815260200160002060006101000a81548173ffffffffffffffffffffffffffffffffffffffff021916908373ffffffffffffffffffffffffffffffffffffffff160217905550808273ffffffffffffffffffffffffffffffffffffffff16600073ffffffffffffffffffffffffffffffffffffffff167fddf252ad1be2c89b69c2b068fc378daa952ba7f163c4a11628f55a4df523b3ef60405160405180910390a45050565b600080823b905060008111915050919050565b828054611b1290612285565b90600052602060002090601f016020900481019282611b345760008555611b7b565b82601f10611b4d57805160ff1916838001178555611b7b565b82800160010185558215611b7b579182015b82811115611b7a578251825591602001919060010190611b5f565b5b509050611b889190611b8c565b5090565b5b80821115611ba5576000816000905550600101611b8d565b5090565b6000604051905090565b600080fd5b600080fd5b60007fffffffff0000000000000000000000000000000000000000000000000000000082169050919050565b611bf281611bbd565b8114611bfd57600080fd5b50565b600081359050611c0f81611be9565b92915050565b600060208284031215611c2b57611c2a611bb3565b5b6000611c3984828501611c00565b91505092915050565b60008115159050919050565b611c5781611c42565b82525050565b6000602082019050611c726000830184611c4e565b92915050565b600081519050919050565b600082825260208201905092915050565b60005b83811015611cb2578082015181840152602081019050611c97565b83811115611cc1576000848401525b50505050565b6000601f19601f8301169050919050565b6000611ce382611c78565b611ced8185611c83565b9350611cfd818560208601611c94565b611d0681611cc7565b840191505092915050565b60006020820190508181036000830152611d2b8184611cd8565b905092915050565b6000819050919050565b611d4681611d33565b8114611d5157600080fd5b50565b600081359050611d6381611d3d565b92915050565b600060208284031215611d7f57611d7e611bb3565b5b6000611d8d84828501611d54565b91505092915050565b600073ffffffffffffffffffffffffffffffffffffffff82169050919050565b6000611dc182611d96565b9050919050565b611dd181611db6565b82525050565b6000602082019050611dec6000830184611dc8565b92915050565b611dfb81611db6565b8114611e0657600080fd5b50565b600081359050611e1881611df2565b92915050565b60008060408385031215611e3557611e34611bb3565b5b6000611e4385828601611e09565b9250506020611e5485828601611d54565b9150509250929050565b600080600060608486031215611e7757611e76611bb3565b5b6000611e8586828701611e09565b9350506020611e9686828701611e09565b9250506040611ea786828701611d54565b9150509250925092565b600060208284031215611ec757611ec6611bb3565b5b6000611ed584828501611e09565b91505092915050565b600080fd5b600080fd5b7f4e487b7100000000000000000000000000000000000000000000000000000000600052604160045260246000fd5b611f2082611cc7565b810181811067ffffffffffffffff82111715611f3f57611f3e611ee8565b5b80604052505050565b6000611f52611ba9565b9050611f5e8282611f17565b919050565b600067ffffffffffffffff821115611f7e57611f7d611ee8565b5b611f8782611cc7565b9050602081019050919050565b82818337600083830152505050565b6000611fb6611fb184611f63565b611f48565b905082815260208101848484011115611fd257611fd1611ee3565b5b611fdd848285611f94565b509392505050565b600082601f830112611ffa57611ff9611ede565b5b813561200a848260208601611fa3565b91505092915050565b60006020828403121561202957612028611bb3565b5b600082013567ffffffffffffffff81111561204757612046611bb8565b5b61205384828501611fe5565b91505092915050565b61206581611d33565b82525050565b6000602082019050612080600083018461205c565b92915050565b61208f81611c42565b811461209a57600080fd5b50565b6000813590506120ac81612086565b92915050565b600080604083850312156120c9576120c8611bb3565b5b60006120d785828601611e09565b92505060206120e88582860161209d565b9150509250929050565b600067ffffffffffffffff82111561210d5761210c611ee8565b5b61211682611cc7565b9050602081019050919050565b6000612136612131846120f2565b611f48565b90508281526020810184848401111561215257612151611ee3565b5b61215d848285611f94565b509392505050565b600082601f83011261217a57612179611ede565b5b813561218a848260208601612123565b91505092915050565b600080600080608085870312156121ad576121ac611bb3565b5b60006121bb87828801611e09565b94505060206121cc87828801611e09565b93505060406121dd87828801611d54565b925050606085013567ffffffffffffffff8111156121fe576121fd611bb8565b5b61220a87828801612165565b91505092959194509250565b6000806040838503121561222d5761222c611bb3565b5b600061223b85828601611e09565b925050602061224c85828601611e09565b9150509250929050565b7f4e487b7100000000000000000000000000000000000000000000000000000000600052602260045260246000fd5b6000600282049050600182168061229d57607f821691505b602082108114156122b1576122b0612256565b5b50919050565b7f4552433732313a20617070726f76656420717565727920666f72206e6f6e657860008201527f697374656e7420746f6b656e0000000000000000000000000000000000000000602082015250565b6000612313602c83611c83565b915061231e826122b7565b604082019050919050565b6000602082019050818103600083015261234281612306565b9050919050565b7f4552433732313a20617070726f76616c20746f2063757272656e74206f776e6560008201527f7200000000000000000000000000000000000000000000000000000000000000602082015250565b60006123a5602183611c83565b91506123b082612349565b604082019050919050565b600060208201905081810360008301526123d481612398565b9050919050565b7f4552433732313a20617070726f76652063616c6c6572206973206e6f74206f7760008201527f6e6572206e6f7220617070726f76656420666f7220616c6c0000000000000000602082015250565b6000612437603883611c83565b9150612442826123db565b604082019050919050565b600060208201905081810360008301526124668161242a565b9050919050565b7f4552433732313a207472616e736665722063616c6c6572206973206e6f74206f60008201527f776e6572206e6f7220617070726f766564000000000000000000000000000000602082015250565b60006124c9603183611c83565b91506124d48261246d565b604082019050919050565b600060208201905081810360008301526124f8816124bc565b9050919050565b7f4f776e61626c653a2063616c6c6572206973206e6f7420746865206f776e6572600082015250565b6000612535602083611c83565b9150612540826124ff565b602082019050919050565b6000602082019050818103600083015261256481612528565b9050919050565b7f4552433732313a206f776e657220717565727920666f72206e6f6e657869737460008201527f656e7420746f6b656e0000000000000000000000000000000000000000000000602082015250565b60006125c7602983611c83565b91506125d28261256b565b604082019050919050565b600060208201905081810360008301526125f6816125ba565b9050919050565b7f4552433732313a2062616c616e636520717565727920666f7220746865207a6560008201527f726f206164647265737300000000000000000000000000000000000000000000602082015250565b6000612659602a83611c83565b9150612664826125fd565b604082019050919050565b600060208201905081810360008301526126888161264c565b9050919050565b7f4552433732313a20617070726f766520746f2063616c6c657200000000000000600082015250565b60006126c5601983611c83565b91506126d08261268f565b602082019050919050565b600060208201905081810360008301526126f4816126b8565b9050919050565b7f4552433732314d657461646174613a2055524920717565727920666f72206e6f60008201527f6e6578697374656e7420746f6b656e0000000000000000000000000000000000602082015250565b6000612757602f83611c83565b9150612762826126fb565b604082019050919050565b600060208201905081810360008301526127868161274a565b9050919050565b600081905092915050565b60006127a382611c78565b6127ad818561278d565b93506127bd818560208601611c94565b80840191505092915050565b60006127d58285612798565b91506127e18284612798565b91508190509392505050565b7f4f776e61626c653a206e6577206f776e657220697320746865207a65726f206160008201527f6464726573730000000000000000000000000000000000000000000000000000602082015250565b6000612849602683611c83565b9150612854826127ed565b604082019050919050565b600060208201905081810360008301526128788161283c565b9050919050565b7f4552433732313a206f70657261746f7220717565727920666f72206e6f6e657860008201527f697374656e7420746f6b656e0000000000000000000000000000000000000000602082015250565b60006128db602c83611c83565b91506128e68261287f565b604082019050919050565b6000602082019050818103600083015261290a816128ce565b9050919050565b7f4552433732313a207472616e73666572206f6620746f6b656e2074686174206960008201527f73206e6f74206f776e0000000000000000000000000000000000000000000000602082015250565b600061296d602983611c83565b915061297882612911565b604082019050919050565b6000602082019050818103600083015261299c81612960565b9050919050565b7f4552433732313a207472616e7366657220746f20746865207a65726f2061646460008201527f7265737300000000000000000000000000000000000000000000000000000000602082015250565b60006129ff602483611c83565b9150612a0a826129a3565b604082019050919050565b60006020820190508181036000830152612a2e816129f2565b9050919050565b7f4e487b7100000000000000000000000000000000000000000000000000000000600052601160045260246000fd5b6000612a6f82611d33565b9150612a7a83611d33565b925082821015612a8d57612a8c612a35565b5b828203905092915050565b6000612aa382611d33565b9150612aae83611d33565b9250827fffffffffffffffffffffffffffffffffffffffffffffffffffffffffffffffff03821115612ae357612ae2612a35565b5b828201905092915050565b7f4552433732313a207472616e7366657220746f206e6f6e20455243373231526560008201527f63656976657220696d706c656d656e7465720000000000000000000000000000602082015250565b6000612b4a603283611c83565b9150612b5582612aee565b604082019050919050565b60006020820190508181036000830152612b7981612b3d565b9050919050565b6000612b8b82611d33565b91507fffffffffffffffffffffffffffffffffffffffffffffffffffffffffffffffff821415612bbe57612bbd612a35565b5b600182019050919050565b7f4e487b7100000000000000000000000000000000000000000000000000000000600052601260045260246000fd5b6000612c0382611d33565b9150612c0e83611d33565b925082612c1e57612c1d612bc9565b5b828204905092915050565b6000612c3482611d33565b9150612c3f83611d33565b925082612c4f57612c4e612bc9565b5b828206905092915050565b7f4e487b7100000000000000000000000000000000000000000000000000000000600052603260045260246000fd5b600081519050919050565b600082825260208201905092915050565b6000612cb082612c89565b612cba8185612c94565b9350612cca818560208601611c94565b612cd381611cc7565b840191505092915050565b6000608082019050612cf36000830187611dc8565b612d006020830186611dc8565b612d0d604083018561205c565b8181036060830152612d1f8184612ca5565b905095945050505050565b600081519050612d3981611be9565b92915050565b600060208284031215612d5557612d54611bb3565b5b6000612d6384828501612d2a565b91505092915050565b7f4552433732313a206d696e7420746f20746865207a65726f2061646472657373600082015250565b6000612da2602083611c83565b9150612dad82612d6c565b602082019050919050565b60006020820190508181036000830152612dd181612d95565b9050919050565b7f4552433732313a20746f6b656e20616c7265616479206d696e74656400000000600082015250565b6000612e0e601c83611c83565b9150612e1982612dd8565b602082019050919050565b60006020820190508181036000830152612e3d81612e01565b905091905056fea2646970667358221220c1b3ff3739ae1c59d8113f53005c6df6f32ea3e38a185d62a946c814bd369f6564736f6c63430008090033",
  "linkReferences": {},
  "deployedLinkReferences": {}
}